{
  "_format": "hh-sol-artifact-1",
  "contractName": "DarkDeskEscrow",
  "sourceName": "contracts/DarkDeskEscrow.sol",
  "abi": [
    {
      "inputs": [],
      "stateMutability": "nonpayable",
      "type": "constructor"
    },
    {
      "inputs": [
        {
          "internalType": "address",
          "name": "owner",
          "type": "address"
        }
      ],
      "name": "OwnableInvalidOwner",
      "type": "error"
    },
    {
      "inputs": [
        {
          "internalType": "address",
          "name": "account",
          "type": "address"
        }
      ],
      "name": "OwnableUnauthorizedAccount",
      "type": "error"
    },
    {
      "anonymous": false,
      "inputs": [
        {
          "indexed": true,
          "internalType": "uint256",
          "name": "escrowId",
          "type": "uint256"
        },
        {
          "indexed": false,
          "internalType": "bytes32",
          "name": "conditionHash",
          "type": "bytes32"
        }
      ],
      "name": "AtomicSwapExecuted",
      "type": "event"
    },
    {
      "anonymous": false,
      "inputs": [
        {
          "indexed": true,
          "internalType": "uint256",
          "name": "escrowId",
          "type": "uint256"
        },
        {
          "indexed": false,
          "internalType": "address",
          "name": "partyA",
          "type": "address"
        },
        {
          "indexed": false,
          "internalType": "address",
          "name": "partyB",
          "type": "address"
        }
      ],
      "name": "EscrowCreated",
      "type": "event"
    },
    {
      "anonymous": false,
      "inputs": [
        {
          "indexed": true,
          "internalType": "uint256",
          "name": "escrowId",
          "type": "uint256"
        }
      ],
      "name": "EscrowFunded",
      "type": "event"
    },
    {
      "anonymous": false,
      "inputs": [
        {
          "indexed": true,
          "internalType": "address",
          "name": "previousOwner",
          "type": "address"
        },
        {
          "indexed": true,
          "internalType": "address",
          "name": "newOwner",
          "type": "address"
        }
      ],
      "name": "OwnershipTransferred",
      "type": "event"
    },
    {
      "inputs": [
        {
          "internalType": "address",
          "name": "_partyA",
          "type": "address"
        },
        {
          "internalType": "address",
          "name": "_partyB",
          "type": "address"
        },
        {
          "internalType": "address",
          "name": "_tokenA",
          "type": "address"
        },
        {
          "internalType": "address",
          "name": "_tokenB",
          "type": "address"
        },
        {
          "internalType": "uint256",
          "name": "_amountA",
          "type": "uint256"
        },
        {
          "internalType": "uint256",
          "name": "_amountB",
          "type": "uint256"
        },
        {
          "internalType": "bytes32",
          "name": "_conditionHash",
          "type": "bytes32"
        }
      ],
      "name": "createEscrow",
      "outputs": [
        {
          "internalType": "uint256",
          "name": "",
          "type": "uint256"
        }
      ],
      "stateMutability": "nonpayable",
      "type": "function"
    },
    {
      "inputs": [
        {
          "internalType": "uint256",
          "name": "",
          "type": "uint256"
        }
      ],
      "name": "escrows",
      "outputs": [
        {
          "internalType": "address",
          "name": "partyA",
          "type": "address"
        },
        {
          "internalType": "address",
          "name": "partyB",
          "type": "address"
        },
        {
          "internalType": "address",
          "name": "tokenA",
          "type": "address"
        },
        {
          "internalType": "address",
          "name": "tokenB",
          "type": "address"
        },
        {
          "internalType": "uint256",
          "name": "amountA",
          "type": "uint256"
        },
        {
          "internalType": "uint256",
          "name": "amountB",
          "type": "uint256"
        },
        {
          "internalType": "enum DarkDeskEscrow.EscrowState",
          "name": "state",
          "type": "uint8"
        },
        {
          "internalType": "bytes32",
          "name": "executionConditionHash",
          "type": "bytes32"
        }
      ],
      "stateMutability": "view",
      "type": "function"
    },
    {
      "inputs": [
        {
          "internalType": "uint256",
          "name": "escrowId",
          "type": "uint256"
        },
        {
          "internalType": "bytes32",
          "name": "_attestationHash",
          "type": "bytes32"
        }
      ],
      "name": "executeConfidentialSwap",
      "outputs": [],
      "stateMutability": "nonpayable",
      "type": "function"
    },
    {
      "inputs": [
        {
          "internalType": "uint256",
          "name": "escrowId",
          "type": "uint256"
        }
      ],
      "name": "mockFunding",
      "outputs": [],
      "stateMutability": "nonpayable",
      "type": "function"
    },
    {
      "inputs": [],
      "name": "nextEscrowId",
      "outputs": [
        {
          "internalType": "uint256",
          "name": "",
          "type": "uint256"
        }
      ],
      "stateMutability": "view",
      "type": "function"
    },
    {
      "inputs": [],
      "name": "owner",
      "outputs": [
        {
          "internalType": "address",
          "name": "",
          "type": "address"
        }
      ],
      "stateMutability": "view",
      "type": "function"
    },
    {
      "inputs": [],
      "name": "renounceOwnership",
      "outputs": [],
      "stateMutability": "nonpayable",
      "type": "function"
    },
    {
      "inputs": [
        {
          "internalType": "address",
          "name": "newOwner",
          "type": "address"
        }
      ],
      "name": "transferOwnership",
      "outputs": [],
      "stateMutability": "nonpayable",
      "type": "function"
    }
  ],
  "bytecode": "0x608060405234801561001057600080fd5b5033600073ffffffffffffffffffffffffffffffffffffffff168173ffffffffffffffffffffffffffffffffffffffff16036100845760006040517f1e4fbdf700000000000000000000000000000000000000000000000000000000815260040161007b919061019e565b60405180910390fd5b6100938161009960201b60201c565b506101b9565b60008060009054906101000a900473ffffffffffffffffffffffffffffffffffffffff169050816000806101000a81548173ffffffffffffffffffffffffffffffffffffffff021916908373ffffffffffffffffffffffffffffffffffffffff1602179055508173ffffffffffffffffffffffffffffffffffffffff168173ffffffffffffffffffffffffffffffffffffffff167f8be0079c531659141344cd1fd0a4f28419497f9722a3daafe3b4186f6b6457e060405160405180910390a35050565b600073ffffffffffffffffffffffffffffffffffffffff82169050919050565b60006101888261015d565b9050919050565b6101988161017d565b82525050565b60006020820190506101b3600083018461018f565b92915050565b610efb806101c86000396000f3fe608060405234801561001057600080fd5b50600436106100885760003560e01c8063715018a61161005b578063715018a61461012c57806389cb29dd146101365780638da5cb5b14610154578063f2fde38b1461017257610088565b8063012f52ee1461008d5780631b70d480146100c457806322d9ff28146100e05780636211077e146100fc575b600080fd5b6100a760048036038101906100a2919061098d565b61018e565b6040516100bb989796959493929190610a9a565b60405180910390f35b6100de60048036038101906100d9919061098d565b610263565b005b6100fa60048036038101906100f59190610b44565b61035c565b005b61011660048036038101906101119190610bb0565b6104a3565b6040516101239190610c52565b60405180910390f35b610134610736565b005b61013e61074a565b60405161014b9190610c52565b60405180910390f35b61015c610750565b6040516101699190610c6d565b60405180910390f35b61018c60048036038101906101879190610c88565b610779565b005b60016020528060005260406000206000915090508060000160009054906101000a900473ffffffffffffffffffffffffffffffffffffffff16908060010160009054906101000a900473ffffffffffffffffffffffffffffffffffffffff16908060020160009054906101000a900473ffffffffffffffffffffffffffffffffffffffff16908060030160009054906101000a900473ffffffffffffffffffffffffffffffffffffffff16908060040154908060050154908060060160009054906101000a900460ff16908060070154905088565b6001600481111561027757610276610a0a565b5b6001600083815260200190815260200160002060060160009054906101000a900460ff1660048111156102ad576102ac610a0a565b5b146102ed576040517f08c379a00000000000000000000000000000000000000000000000000000000081526004016102e490610d12565b60405180910390fd5b60026001600083815260200190815260200160002060060160006101000a81548160ff0219169083600481111561032757610326610a0a565b5b0217905550807f3b4f5a74452cddb80ae5a0d279eb7db6afd5e556e72ca2883016b1da7c9d211660405160405180910390a250565b6103646107ff565b60006001600084815260200190815260200160002090506002600481111561038f5761038e610a0a565b5b8160060160009054906101000a900460ff1660048111156103b3576103b2610a0a565b5b146103f3576040517f08c379a00000000000000000000000000000000000000000000000000000000081526004016103ea90610d7e565b60405180910390fd5b81816007015414610439576040517f08c379a000000000000000000000000000000000000000000000000000000000815260040161043090610dea565b60405180910390fd5b60038160060160006101000a81548160ff0219169083600481111561046157610460610a0a565b5b0217905550827f4b79067bc16565a7264aecf3c251bf41b527fdefde90ee6f31fa6f8101a47350836040516104969190610e0a565b60405180910390a2505050565b60006104ad6107ff565b6000600260008154809291906104c290610e54565b9190505590506040518061010001604052808a73ffffffffffffffffffffffffffffffffffffffff1681526020018973ffffffffffffffffffffffffffffffffffffffff1681526020018873ffffffffffffffffffffffffffffffffffffffff1681526020018773ffffffffffffffffffffffffffffffffffffffff1681526020018681526020018581526020016001600481111561056457610563610a0a565b5b8152602001848152506001600083815260200190815260200160002060008201518160000160006101000a81548173ffffffffffffffffffffffffffffffffffffffff021916908373ffffffffffffffffffffffffffffffffffffffff16021790555060208201518160010160006101000a81548173ffffffffffffffffffffffffffffffffffffffff021916908373ffffffffffffffffffffffffffffffffffffffff16021790555060408201518160020160006101000a81548173ffffffffffffffffffffffffffffffffffffffff021916908373ffffffffffffffffffffffffffffffffffffffff16021790555060608201518160030160006101000a81548173ffffffffffffffffffffffffffffffffffffffff021916908373ffffffffffffffffffffffffffffffffffffffff1602179055506080820151816004015560a0820151816005015560c08201518160060160006101000a81548160ff021916908360048111156106db576106da610a0a565b5b021790555060e08201518160070155905050807fcc50a4e95294d36f3e612eabd37417678a3c52eb30d18039a0b2ed5cff4cfc0f8a8a60405161071f929190610e9c565b60405180910390a280915050979650505050505050565b61073e6107ff565b6107486000610886565b565b60025481565b60008060009054906101000a900473ffffffffffffffffffffffffffffffffffffffff16905090565b6107816107ff565b600073ffffffffffffffffffffffffffffffffffffffff168173ffffffffffffffffffffffffffffffffffffffff16036107f35760006040517f1e4fbdf70000000000000000000000000000000000000000000000000000000081526004016107ea9190610c6d565b60405180910390fd5b6107fc81610886565b50565b61080761094a565b73ffffffffffffffffffffffffffffffffffffffff16610825610750565b73ffffffffffffffffffffffffffffffffffffffff16146108845761084861094a565b6040517f118cdaa700000000000000000000000000000000000000000000000000000000815260040161087b9190610c6d565b60405180910390fd5b565b60008060009054906101000a900473ffffffffffffffffffffffffffffffffffffffff169050816000806101000a81548173ffffffffffffffffffffffffffffffffffffffff021916908373ffffffffffffffffffffffffffffffffffffffff1602179055508173ffffffffffffffffffffffffffffffffffffffff168173ffffffffffffffffffffffffffffffffffffffff167f8be0079c531659141344cd1fd0a4f28419497f9722a3daafe3b4186f6b6457e060405160405180910390a35050565b600033905090565b600080fd5b6000819050919050565b61096a81610957565b811461097557600080fd5b50565b60008135905061098781610961565b92915050565b6000602082840312156109a3576109a2610952565b5b60006109b184828501610978565b91505092915050565b600073ffffffffffffffffffffffffffffffffffffffff82169050919050565b60006109e5826109ba565b9050919050565b6109f5816109da565b82525050565b610a0481610957565b82525050565b7f4e487b7100000000000000000000000000000000000000000000000000000000600052602160045260246000fd5b60058110610a4a57610a49610a0a565b5b50565b6000819050610a5b82610a39565b919050565b6000610a6b82610a4d565b9050919050565b610a7b81610a60565b82525050565b6000819050919050565b610a9481610a81565b82525050565b600061010082019050610ab0600083018b6109ec565b610abd602083018a6109ec565b610aca60408301896109ec565b610ad760608301886109ec565b610ae460808301876109fb565b610af160a08301866109fb565b610afe60c0830185610a72565b610b0b60e0830184610a8b565b9998505050505050505050565b610b2181610a81565b8114610b2c57600080fd5b50565b600081359050610b3e81610b18565b92915050565b60008060408385031215610b5b57610b5a610952565b5b6000610b6985828601610978565b9250506020610b7a85828601610b2f565b9150509250929050565b610b8d816109da565b8114610b9857600080fd5b50565b600081359050610baa81610b84565b92915050565b600080600080600080600060e0888a031215610bcf57610bce610952565b5b6000610bdd8a828b01610b9b565b9750506020610bee8a828b01610b9b565b9650506040610bff8a828b01610b9b565b9550506060610c108a828b01610b9b565b9450506080610c218a828b01610978565b93505060a0610c328a828b01610978565b92505060c0610c438a828b01610b2f565b91505092959891949750929550565b6000602082019050610c6760008301846109fb565b92915050565b6000602082019050610c8260008301846109ec565b92915050565b600060208284031215610c9e57610c9d610952565b5b6000610cac84828501610b9b565b91505092915050565b600082825260208201905092915050565b7f496e76616c696420737461746500000000000000000000000000000000000000600082015250565b6000610cfc600d83610cb5565b9150610d0782610cc6565b602082019050919050565b60006020820190508181036000830152610d2b81610cef565b9050919050565b7f4e6f742066756e64656400000000000000000000000000000000000000000000600082015250565b6000610d68600a83610cb5565b9150610d7382610d32565b602082019050919050565b60006020820190508181036000830152610d9781610d5b565b9050919050565b7f4174746573746174696f6e206661696c65640000000000000000000000000000600082015250565b6000610dd4601283610cb5565b9150610ddf82610d9e565b602082019050919050565b60006020820190508181036000830152610e0381610dc7565b9050919050565b6000602082019050610e1f6000830184610a8b565b92915050565b7f4e487b7100000000000000000000000000000000000000000000000000000000600052601160045260246000fd5b6000610e5f82610957565b91507fffffffffffffffffffffffffffffffffffffffffffffffffffffffffffffffff8203610e9157610e90610e25565b5b600182019050919050565b6000604082019050610eb160008301856109ec565b610ebe60208301846109ec565b939250505056fea2646970667358221220c4cee80f9658034d2ed91c8fe41418dd49a36cd34d8b4bbf99cfe75e549c986464736f6c63430008140033",
  "linkReferences": {},
  "deployedLinkReferences": {}
}